{
  "_format": "hh-sol-artifact-1",
  "contractName": "DocumentStorage",
  "sourceName": "contracts/DocumentStorage.sol",
  "abi": [
    {
      "inputs": [
        {
          "internalType": "address",
          "name": "target",
          "type": "address"
        }
      ],
      "name": "AddressEmptyCode",
      "type": "error"
    },
    {
      "inputs": [
        {
          "internalType": "address",
          "name": "implementation",
          "type": "address"
        }
      ],
      "name": "ERC1967InvalidImplementation",
      "type": "error"
    },
    {
      "inputs": [],
      "name": "ERC1967NonPayable",
      "type": "error"
    },
    {
      "inputs": [],
      "name": "FailedCall",
      "type": "error"
    },
    {
      "inputs": [],
      "name": "InvalidInitialization",
      "type": "error"
    },
    {
      "inputs": [],
      "name": "NotInitializing",
      "type": "error"
    },
    {
      "inputs": [],
      "name": "ReentrancyGuardReentrantCall",
      "type": "error"
    },
    {
      "inputs": [],
      "name": "UUPSUnauthorizedCallContext",
      "type": "error"
    },
    {
      "inputs": [
        {
          "internalType": "bytes32",
          "name": "slot",
          "type": "bytes32"
        }
      ],
      "name": "UUPSUnsupportedProxiableUUID",
      "type": "error"
    },
    {
      "anonymous": false,
      "inputs": [
        {
          "indexed": true,
          "internalType": "string",
          "name": "userId",
          "type": "string"
        },
        {
          "indexed": false,
          "internalType": "bytes32",
          "name": "sha256Hash",
          "type": "bytes32"
        },
        {
          "indexed": false,
          "internalType": "string",
          "name": "docId",
          "type": "string"
        }
      ],
      "name": "DocumentRevoked",
      "type": "event"
    },
    {
      "anonymous": false,
      "inputs": [
        {
          "indexed": true,
          "internalType": "string",
          "name": "userId",
          "type": "string"
        },
        {
          "indexed": false,
          "internalType": "bytes32",
          "name": "sha256Hash",
          "type": "bytes32"
        },
        {
          "indexed": false,
          "internalType": "string",
          "name": "docId",
          "type": "string"
        }
      ],
      "name": "DocumentStored",
      "type": "event"
    },
    {
      "anonymous": false,
      "inputs": [
        {
          "indexed": false,
          "internalType": "uint64",
          "name": "version",
          "type": "uint64"
        }
      ],
      "name": "Initialized",
      "type": "event"
    },
    {
      "anonymous": false,
      "inputs": [
        {
          "indexed": true,
          "internalType": "address",
          "name": "issuer",
          "type": "address"
        }
      ],
      "name": "IssuerAdded",
      "type": "event"
    },
    {
      "anonymous": false,
      "inputs": [
        {
          "indexed": true,
          "internalType": "address",
          "name": "issuer",
          "type": "address"
        }
      ],
      "name": "IssuerRemoved",
      "type": "event"
    },
    {
      "anonymous": false,
      "inputs": [
        {
          "indexed": true,
          "internalType": "address",
          "name": "revoker",
          "type": "address"
        }
      ],
      "name": "RevokerAdded",
      "type": "event"
    },
    {
      "anonymous": false,
      "inputs": [
        {
          "indexed": true,
          "internalType": "address",
          "name": "revoker",
          "type": "address"
        }
      ],
      "name": "RevokerRemoved",
      "type": "event"
    },
    {
      "anonymous": false,
      "inputs": [
        {
          "indexed": true,
          "internalType": "address",
          "name": "implementation",
          "type": "address"
        }
      ],
      "name": "Upgraded",
      "type": "event"
    },
    {
      "inputs": [],
      "name": "UPGRADE_INTERFACE_VERSION",
      "outputs": [
        {
          "internalType": "string",
          "name": "",
          "type": "string"
        }
      ],
      "stateMutability": "view",
      "type": "function"
    },
    {
      "inputs": [
        {
          "internalType": "address",
          "name": "issuer",
          "type": "address"
        }
      ],
      "name": "addAuthorizedIssuer",
      "outputs": [],
      "stateMutability": "nonpayable",
      "type": "function"
    },
    {
      "inputs": [
        {
          "internalType": "address",
          "name": "revoker",
          "type": "address"
        }
      ],
      "name": "addAuthorizedRevoker",
      "outputs": [],
      "stateMutability": "nonpayable",
      "type": "function"
    },
    {
      "inputs": [],
      "name": "getAllAuthorizedIssuers",
      "outputs": [
        {
          "internalType": "address[]",
          "name": "",
          "type": "address[]"
        }
      ],
      "stateMutability": "view",
      "type": "function"
    },
    {
      "inputs": [],
      "name": "getAllAuthorizedRevokers",
      "outputs": [
        {
          "internalType": "address[]",
          "name": "",
          "type": "address[]"
        }
      ],
      "stateMutability": "view",
      "type": "function"
    },
    {
      "inputs": [
        {
          "internalType": "string",
          "name": "userId",
          "type": "string"
        }
      ],
      "name": "getAllDocumentsForUser",
      "outputs": [
        {
          "components": [
            {
              "internalType": "bytes32",
              "name": "sha256Hash",
              "type": "bytes32"
            },
            {
              "internalType": "string",
              "name": "docId",
              "type": "string"
            },
            {
              "internalType": "uint256",
              "name": "issueDate",
              "type": "uint256"
            }
          ],
          "internalType": "struct DocumentStorage.Document[]",
          "name": "",
          "type": "tuple[]"
        }
      ],
      "stateMutability": "view",
      "type": "function"
    },
    {
      "inputs": [
        {
          "internalType": "string",
          "name": "userId",
          "type": "string"
        },
        {
          "internalType": "string",
          "name": "docId",
          "type": "string"
        }
      ],
      "name": "getDocument",
      "outputs": [
        {
          "internalType": "bytes32",
          "name": "",
          "type": "bytes32"
        },
        {
          "internalType": "string",
          "name": "",
          "type": "string"
        }
      ],
      "stateMutability": "view",
      "type": "function"
    },
    {
      "inputs": [
        {
          "internalType": "string",
          "name": "userId",
          "type": "string"
        }
      ],
      "name": "getDocumentIds",
      "outputs": [
        {
          "internalType": "string[]",
          "name": "",
          "type": "string[]"
        }
      ],
      "stateMutability": "view",
      "type": "function"
    },
    {
      "inputs": [
        {
          "internalType": "address",
          "name": "_owner2",
          "type": "address"
        },
        {
          "internalType": "address",
          "name": "_owner3",
          "type": "address"
        }
      ],
      "name": "initialize",
      "outputs": [],
      "stateMutability": "nonpayable",
      "type": "function"
    },
    {
      "inputs": [
        {
          "internalType": "string",
          "name": "userId",
          "type": "string"
        },
        {
          "internalType": "string",
          "name": "docId",
          "type": "string"
        }
      ],
      "name": "isRevoked",
      "outputs": [
        {
          "internalType": "bool",
          "name": "",
          "type": "bool"
        }
      ],
      "stateMutability": "view",
      "type": "function"
    },
    {
      "inputs": [],
      "name": "proxiableUUID",
      "outputs": [
        {
          "internalType": "bytes32",
          "name": "",
          "type": "bytes32"
        }
      ],
      "stateMutability": "view",
      "type": "function"
    },
    {
      "inputs": [
        {
          "internalType": "address",
          "name": "issuer",
          "type": "address"
        }
      ],
      "name": "removeAuthorizedIssuer",
      "outputs": [],
      "stateMutability": "nonpayable",
      "type": "function"
    },
    {
      "inputs": [
        {
          "internalType": "address",
          "name": "revoker",
          "type": "address"
        }
      ],
      "name": "removeAuthorizedRevoker",
      "outputs": [],
      "stateMutability": "nonpayable",
      "type": "function"
    },
    {
      "inputs": [
        {
          "internalType": "string",
          "name": "userId",
          "type": "string"
        },
        {
          "internalType": "string",
          "name": "docId",
          "type": "string"
        }
      ],
      "name": "revokeDocument",
      "outputs": [],
      "stateMutability": "nonpayable",
      "type": "function"
    },
    {
      "inputs": [
        {
          "internalType": "string",
          "name": "userId",
          "type": "string"
        },
        {
          "internalType": "string",
          "name": "docId",
          "type": "string"
        },
        {
          "internalType": "bytes32",
          "name": "sha256Hash",
          "type": "bytes32"
        }
      ],
      "name": "storeDocument",
      "outputs": [],
      "stateMutability": "nonpayable",
      "type": "function"
    },
    {
      "inputs": [
        {
          "internalType": "address",
          "name": "newImplementation",
          "type": "address"
        },
        {
          "internalType": "bytes",
          "name": "data",
          "type": "bytes"
        }
      ],
      "name": "upgradeToAndCall",
      "outputs": [],
      "stateMutability": "payable",
      "type": "function"
    },
    {
      "inputs": [
        {
          "internalType": "string",
          "name": "userId",
          "type": "string"
        },
        {
          "internalType": "string",
          "name": "docId",
          "type": "string"
        },
        {
          "internalType": "bytes32",
          "name": "sha256Hash",
          "type": "bytes32"
        }
      ],
      "name": "verifyDocument",
      "outputs": [
        {
          "internalType": "bool",
          "name": "",
          "type": "bool"
        }
      ],
      "stateMutability": "view",
      "type": "function"
    }
  ],
  "bytecode": "0x60a06040523073ffffffffffffffffffffffffffffffffffffffff1660809073ffffffffffffffffffffffffffffffffffffffff16815250348015604257600080fd5b5060805161444261006c600039600081816126440152818161269901526129c701526144426000f3fe6080604052600436106100fe5760003560e01c806353ec8711116100955780639ff23d2e116100645780639ff23d2e14610325578063ad3cb1cc14610362578063cf80ed301461038d578063f4b00a2b146103ca578063f55294c9146103f3576100fe565b806353ec87111461025857806364688d9d146102965780636807a763146102bf5780639c2b1d21146102fc576100fe565b8063478e285c116100d1578063478e285c146101bf578063485cc955146101e85780634f1ef2861461021157806352d1902d1461022d576100fe565b80630cf22458146101035780630eb022f51461012e57806312c7fa431461015757806321e346c614610194575b600080fd5b34801561010f57600080fd5b5061011861041c565b6040516101259190612f9c565b60405180910390f35b34801561013a57600080fd5b506101556004803603810190610150919061306d565b6104aa565b005b34801561016357600080fd5b5061017e60048036038101906101799190613102565b61088b565b60405161018b9190613319565b60405180910390f35b3480156101a057600080fd5b506101a9610a5c565b6040516101b69190612f9c565b60405180910390f35b3480156101cb57600080fd5b506101e660048036038101906101e1919061333b565b610aea565b005b3480156101f457600080fd5b5061020f600480360381019061020a91906133e8565b610f9f565b005b61022b60048036038101906102269190613558565b6112a2565b005b34801561023957600080fd5b506102426112c1565b60405161024f91906135c3565b60405180910390f35b34801561026457600080fd5b5061027f600480360381019061027a919061333b565b6112f4565b60405161028d929190613628565b60405180910390f35b3480156102a257600080fd5b506102bd60048036038101906102b89190613658565b6113dd565b005b3480156102cb57600080fd5b506102e660048036038101906102e1919061333b565b61175f565b6040516102f391906136a0565b60405180910390f35b34801561030857600080fd5b50610323600480360381019061031e9190613658565b6117b7565b005b34801561033157600080fd5b5061034c60048036038101906103479190613102565b611b39565b604051610359919061377d565b60405180910390f35b34801561036e57600080fd5b50610377611c33565b604051610384919061379f565b60405180910390f35b34801561039957600080fd5b506103b460048036038101906103af919061306d565b611c6c565b6040516103c191906136a0565b60405180910390f35b3480156103d657600080fd5b506103f160048036038101906103ec9190613658565b611cc2565b005b3480156103ff57600080fd5b5061041a60048036038101906104159190613658565b612128565b005b606060068054806020026020016040519081016040528092919081815260200182805480156104a057602002820191906000526020600020905b8160009054906101000a900473ffffffffffffffffffffffffffffffffffffffff1673ffffffffffffffffffffffffffffffffffffffff1681526020019060010190808311610456575b5050505050905090565b6104b261258e565b6000600360003373ffffffffffffffffffffffffffffffffffffffff1673ffffffffffffffffffffffffffffffffffffffff16815260200190815260200160002054118061056057506000806003811061050f5761050e6137c1565b5b0160009054906101000a900473ffffffffffffffffffffffffffffffffffffffff1673ffffffffffffffffffffffffffffffffffffffff163373ffffffffffffffffffffffffffffffffffffffff16145b806105cc5750600060016003811061057b5761057a6137c1565b5b0160009054906101000a900473ffffffffffffffffffffffffffffffffffffffff1673ffffffffffffffffffffffffffffffffffffffff163373ffffffffffffffffffffffffffffffffffffffff16145b80610638575060006002600381106105e7576105e66137c1565b5b0160009054906101000a900473ffffffffffffffffffffffffffffffffffffffff1673ffffffffffffffffffffffffffffffffffffffff163373ffffffffffffffffffffffffffffffffffffffff16145b610677576040517f08c379a000000000000000000000000000000000000000000000000000000000815260040161066e9061383c565b60405180910390fd5b60006007868660405161068b92919061388c565b908152602001604051809103902084846040516106a992919061388c565b908152602001604051809103902090506000801b816000015414610702576040517f08c379a00000000000000000000000000000000000000000000000000000000081526004016106f9906138f1565b60405180910390fd5b604051806060016040528083815260200185858080601f016020809104026020016040519081016040528093929190818152602001838380828437600081840152601f19601f820116905080830192505050505050508152602001428152506007878760405161077392919061388c565b9081526020016040518091039020858560405161079192919061388c565b90815260200160405180910390206000820151816000015560208201518160010190816107be9190613b1d565b5060408201518160020155905050600886866040516107de92919061388c565b9081526020016040518091039020848490918060018154018082558091505060019003906000526020600020016000909192909192909192909192509182610827929190613bfa565b50858560405161083892919061388c565b60405180910390207fe984f8a833030d486fad35dc0132a2b901149424b6acd092610527a085b811e683868660405161087393929190613cf7565b60405180910390a2506108846125e5565b5050505050565b60606000600884846040516108a192919061388c565b908152602001604051809103902090506000818054905067ffffffffffffffff8111156108d1576108d061342d565b5b60405190808252806020026020018201604052801561090a57816020015b6108f7612e2b565b8152602001906001900390816108ef5790505b50905060005b8280549050811015610a50576007868660405161092e92919061388c565b908152602001604051809103902083828154811061094f5761094e6137c1565b5b906000526020600020016040516109669190613dac565b90815260200160405180910390206040518060600160405290816000820154815260200160018201805461099990613940565b80601f01602080910402602001604051908101604052809291908181526020018280546109c590613940565b8015610a125780601f106109e757610100808354040283529160200191610a12565b820191906000526020600020905b8154815290600101906020018083116109f557829003601f168201915b50505050508152602001600282015481525050828281518110610a3857610a376137c1565b5b60200260200101819052508080600101915050610910565b50809250505092915050565b60606004805480602002602001604051908101604052809291908181526020018280548015610ae057602002820191906000526020600020905b8160009054906101000a900473ffffffffffffffffffffffffffffffffffffffff1673ffffffffffffffffffffffffffffffffffffffff1681526020019060010190808311610a96575b5050505050905090565b610af261258e565b6000600560003373ffffffffffffffffffffffffffffffffffffffff1673ffffffffffffffffffffffffffffffffffffffff168152602001908152602001600020541180610ba0575060008060038110610b4f57610b4e6137c1565b5b0160009054906101000a900473ffffffffffffffffffffffffffffffffffffffff1673ffffffffffffffffffffffffffffffffffffffff163373ffffffffffffffffffffffffffffffffffffffff16145b80610c0c57506000600160038110610bbb57610bba6137c1565b5b0160009054906101000a900473ffffffffffffffffffffffffffffffffffffffff1673ffffffffffffffffffffffffffffffffffffffff163373ffffffffffffffffffffffffffffffffffffffff16145b80610c7857506000600260038110610c2757610c266137c1565b5b0160009054906101000a900473ffffffffffffffffffffffffffffffffffffffff1673ffffffffffffffffffffffffffffffffffffffff163373ffffffffffffffffffffffffffffffffffffffff16145b610cb7576040517f08c379a0000000000000000000000000000000000000000000000000000000008152600401610cae90613e0f565b60405180910390fd5b600060078585604051610ccb92919061388c565b90815260200160405180910390208383604051610ce992919061388c565b908152602001604051809103902090506000801b816000015403610d42576040517f08c379a0000000000000000000000000000000000000000000000000000000008152600401610d3990613e7b565b60405180910390fd5b8484604051610d5292919061388c565b60405180910390207fe0b47c972831230c6162349101217e3782534a4d3cfb49a16a28882bcb614836826000015483600101604051610d92929190613f1f565b60405180910390a2600160098686604051610dae92919061388c565b90815260200160405180910390208484604051610dcc92919061388c565b908152602001604051809103902060006101000a81548160ff02191690831515021790555060078585604051610e0392919061388c565b90815260200160405180910390208383604051610e2192919061388c565b9081526020016040518091039020600080820160009055600182016000610e489190612e4f565b60028201600090555050600060088686604051610e6692919061388c565b9081526020016040518091039020905060005b8180549050811015610f8e578484604051602001610e9892919061388c565b60405160208183030381529060405280519060200120828281548110610ec157610ec06137c1565b5b90600052602060002001604051602001610edb9190613dac565b6040516020818303038152906040528051906020012003610f81578160018380549050610f089190613f7e565b81548110610f1957610f186137c1565b5b90600052602060002001828281548110610f3657610f356137c1565b5b906000526020600020019081610f4c9190613fdd565b5081805480610f5e57610f5d6140c5565b5b600190038181906000526020600020016000610f7a9190612e4f565b9055610f8e565b8080600101915050610e79565b505050610f996125e5565b50505050565b6000610fa96125fe565b905060008160000160089054906101000a900460ff1615905060008260000160009054906101000a900467ffffffffffffffff1690506000808267ffffffffffffffff16148015610ff75750825b9050600060018367ffffffffffffffff1614801561102c575060003073ffffffffffffffffffffffffffffffffffffffff163b145b90508115801561103a575080155b15611071576040517ff92ee8a900000000000000000000000000000000000000000000000000000000815260040160405180910390fd5b60018560000160006101000a81548167ffffffffffffffff021916908367ffffffffffffffff16021790555083156110c15760018560000160086101000a81548160ff0219169083151502179055505b3273ffffffffffffffffffffffffffffffffffffffff163373ffffffffffffffffffffffffffffffffffffffff161461112f576040517f08c379a000000000000000000000000000000000000000000000000000000000815260040161112690614140565b60405180910390fd5b3360008060038110611144576111436137c1565b5b0160006101000a81548173ffffffffffffffffffffffffffffffffffffffff021916908373ffffffffffffffffffffffffffffffffffffffff160217905550866000600160038110611199576111986137c1565b5b0160006101000a81548173ffffffffffffffffffffffffffffffffffffffff021916908373ffffffffffffffffffffffffffffffffffffffff1602179055508560006002600381106111ee576111ed6137c1565b5b0160006101000a81548173ffffffffffffffffffffffffffffffffffffffff021916908373ffffffffffffffffffffffffffffffffffffffff160217905550611235612626565b61123d612630565b83156112995760008560000160086101000a81548160ff0219169083151502179055507fc7f505b2f371ae2175ee4913f4499e1f2633a7b5936321eed1cdaeb6115181d2600160405161129091906141af565b60405180910390a15b50505050505050565b6112aa612642565b6112b382612728565b6112bd82826128a6565b5050565b60006112cb6129c5565b7f360894a13ba1a3210667c828492db98dca3e2076cc3735a920a3ca505d382bbc60001b905090565b6000606060006007878760405161130c92919061388c565b9081526020016040518091039020858560405161132a92919061388c565b9081526020016040518091039020905080600001548160010180805461134f90613940565b80601f016020809104026020016040519081016040528092919081815260200182805461137b90613940565b80156113c85780601f1061139d576101008083540402835291602001916113c8565b820191906000526020600020905b8154815290600101906020018083116113ab57829003601f168201915b50505050509050925092505094509492505050565b600080600381106113f1576113f06137c1565b5b0160009054906101000a900473ffffffffffffffffffffffffffffffffffffffff1673ffffffffffffffffffffffffffffffffffffffff163373ffffffffffffffffffffffffffffffffffffffff1614806114ad5750600060016003811061145c5761145b6137c1565b5b0160009054906101000a900473ffffffffffffffffffffffffffffffffffffffff1673ffffffffffffffffffffffffffffffffffffffff163373ffffffffffffffffffffffffffffffffffffffff16145b80611519575060006002600381106114c8576114c76137c1565b5b0160009054906101000a900473ffffffffffffffffffffffffffffffffffffffff1673ffffffffffffffffffffffffffffffffffffffff163373ffffffffffffffffffffffffffffffffffffffff16145b611558576040517f08c379a000000000000000000000000000000000000000000000000000000000815260040161154f90614216565b60405180910390fd5b6000600560008373ffffffffffffffffffffffffffffffffffffffff1673ffffffffffffffffffffffffffffffffffffffff1681526020019081526020016000205414801561162257506000600680549050148061162157508073ffffffffffffffffffffffffffffffffffffffff1660066000815481106115dd576115dc6137c1565b5b9060005260206000200160009054906101000a900473ffffffffffffffffffffffffffffffffffffffff1673ffffffffffffffffffffffffffffffffffffffff1614155b5b611661576040517f08c379a000000000000000000000000000000000000000000000000000000000815260040161165890614282565b60405180910390fd5b600160068054905061167391906142a2565b600560008373ffffffffffffffffffffffffffffffffffffffff1673ffffffffffffffffffffffffffffffffffffffff168152602001908152602001600020819055506006819080600181540180825580915050600190039060005260206000200160009091909190916101000a81548173ffffffffffffffffffffffffffffffffffffffff021916908373ffffffffffffffffffffffffffffffffffffffff1602179055508073ffffffffffffffffffffffffffffffffffffffff167f1079379f5563b8119cc5df445caf51f759d16278574b30c60c2bb998c849c11660405160405180910390a250565b60006009858560405161177392919061388c565b9081526020016040518091039020838360405161179192919061388c565b908152602001604051809103902060009054906101000a900460ff169050949350505050565b600080600381106117cb576117ca6137c1565b5b0160009054906101000a900473ffffffffffffffffffffffffffffffffffffffff1673ffffffffffffffffffffffffffffffffffffffff163373ffffffffffffffffffffffffffffffffffffffff16148061188757506000600160038110611836576118356137c1565b5b0160009054906101000a900473ffffffffffffffffffffffffffffffffffffffff1673ffffffffffffffffffffffffffffffffffffffff163373ffffffffffffffffffffffffffffffffffffffff16145b806118f3575060006002600381106118a2576118a16137c1565b5b0160009054906101000a900473ffffffffffffffffffffffffffffffffffffffff1673ffffffffffffffffffffffffffffffffffffffff163373ffffffffffffffffffffffffffffffffffffffff16145b611932576040517f08c379a000000000000000000000000000000000000000000000000000000000815260040161192990614216565b60405180910390fd5b6000600360008373ffffffffffffffffffffffffffffffffffffffff1673ffffffffffffffffffffffffffffffffffffffff168152602001908152602001600020541480156119fc5750600060048054905014806119fb57508073ffffffffffffffffffffffffffffffffffffffff1660046000815481106119b7576119b66137c1565b5b9060005260206000200160009054906101000a900473ffffffffffffffffffffffffffffffffffffffff1673ffffffffffffffffffffffffffffffffffffffff1614155b5b611a3b576040517f08c379a0000000000000000000000000000000000000000000000000000000008152600401611a3290614282565b60405180910390fd5b6001600480549050611a4d91906142a2565b600360008373ffffffffffffffffffffffffffffffffffffffff1673ffffffffffffffffffffffffffffffffffffffff168152602001908152602001600020819055506004819080600181540180825580915050600190039060005260206000200160009091909190916101000a81548173ffffffffffffffffffffffffffffffffffffffff021916908373ffffffffffffffffffffffffffffffffffffffff1602179055508073ffffffffffffffffffffffffffffffffffffffff167f05e7c881d716bee8cb7ed92293133ba156704252439e5c502c277448f04e20c260405160405180910390a250565b606060088383604051611b4d92919061388c565b9081526020016040518091039020805480602002602001604051908101604052809291908181526020016000905b82821015611c27578382906000526020600020018054611b9a90613940565b80601f0160208091040260200160405190810160405280929190818152602001828054611bc690613940565b8015611c135780601f10611be857610100808354040283529160200191611c13565b820191906000526020600020905b815481529060010190602001808311611bf657829003601f168201915b505050505081526020019060010190611b7b565b50505050905092915050565b6040518060400160405280600581526020017f352e302e3000000000000000000000000000000000000000000000000000000081525081565b60008060078787604051611c8192919061388c565b90815260200160405180910390208585604051611c9f92919061388c565b908152602001604051809103902090508281600001541491505095945050505050565b60008060038110611cd657611cd56137c1565b5b0160009054906101000a900473ffffffffffffffffffffffffffffffffffffffff1673ffffffffffffffffffffffffffffffffffffffff163373ffffffffffffffffffffffffffffffffffffffff161480611d9257506000600160038110611d4157611d406137c1565b5b0160009054906101000a900473ffffffffffffffffffffffffffffffffffffffff1673ffffffffffffffffffffffffffffffffffffffff163373ffffffffffffffffffffffffffffffffffffffff16145b80611dfe57506000600260038110611dad57611dac6137c1565b5b0160009054906101000a900473ffffffffffffffffffffffffffffffffffffffff1673ffffffffffffffffffffffffffffffffffffffff163373ffffffffffffffffffffffffffffffffffffffff16145b611e3d576040517f08c379a0000000000000000000000000000000000000000000000000000000008152600401611e3490614216565b60405180910390fd5b6000600560008373ffffffffffffffffffffffffffffffffffffffff1673ffffffffffffffffffffffffffffffffffffffff1681526020019081526020016000205411611ebf576040517f08c379a0000000000000000000000000000000000000000000000000000000008152600401611eb690614322565b60405180910390fd5b60006001600560008473ffffffffffffffffffffffffffffffffffffffff1673ffffffffffffffffffffffffffffffffffffffff16815260200190815260200160002054611f0d9190613f7e565b905060006001600680549050611f239190613f7e565b90508082146120565760068181548110611f4057611f3f6137c1565b5b9060005260206000200160009054906101000a900473ffffffffffffffffffffffffffffffffffffffff1660068381548110611f7f57611f7e6137c1565b5b9060005260206000200160006101000a81548173ffffffffffffffffffffffffffffffffffffffff021916908373ffffffffffffffffffffffffffffffffffffffff160217905550600182611fd491906142a2565b6005600060068581548110611fec57611feb6137c1565b5b9060005260206000200160009054906101000a900473ffffffffffffffffffffffffffffffffffffffff1673ffffffffffffffffffffffffffffffffffffffff1673ffffffffffffffffffffffffffffffffffffffff168152602001908152602001600020819055505b6006805480612068576120676140c5565b5b6001900381819060005260206000200160006101000a81549073ffffffffffffffffffffffffffffffffffffffff02191690559055600560008473ffffffffffffffffffffffffffffffffffffffff1673ffffffffffffffffffffffffffffffffffffffff168152602001908152602001600020600090558273ffffffffffffffffffffffffffffffffffffffff167f869c3bd5ab476af0f92c3a50e0fe7aebf167e6e23a67d07e721e12be6877c61360405160405180910390a2505050565b6000806003811061213c5761213b6137c1565b5b0160009054906101000a900473ffffffffffffffffffffffffffffffffffffffff1673ffffffffffffffffffffffffffffffffffffffff163373ffffffffffffffffffffffffffffffffffffffff1614806121f8575060006001600381106121a7576121a66137c1565b5b0160009054906101000a900473ffffffffffffffffffffffffffffffffffffffff1673ffffffffffffffffffffffffffffffffffffffff163373ffffffffffffffffffffffffffffffffffffffff16145b8061226457506000600260038110612213576122126137c1565b5b0160009054906101000a900473ffffffffffffffffffffffffffffffffffffffff1673ffffffffffffffffffffffffffffffffffffffff163373ffffffffffffffffffffffffffffffffffffffff16145b6122a3576040517f08c379a000000000000000000000000000000000000000000000000000000000815260040161229a90614216565b60405180910390fd5b6000600360008373ffffffffffffffffffffffffffffffffffffffff1673ffffffffffffffffffffffffffffffffffffffff1681526020019081526020016000205411612325576040517f08c379a000000000000000000000000000000000000000000000000000000000815260040161231c90614322565b60405180910390fd5b60006001600360008473ffffffffffffffffffffffffffffffffffffffff1673ffffffffffffffffffffffffffffffffffffffff168152602001908152602001600020546123739190613f7e565b9050600060016004805490506123899190613f7e565b90508082146124bc57600481815481106123a6576123a56137c1565b5b9060005260206000200160009054906101000a900473ffffffffffffffffffffffffffffffffffffffff16600483815481106123e5576123e46137c1565b5b9060005260206000200160006101000a81548173ffffffffffffffffffffffffffffffffffffffff021916908373ffffffffffffffffffffffffffffffffffffffff16021790555060018261243a91906142a2565b6003600060048581548110612452576124516137c1565b5b9060005260206000200160009054906101000a900473ffffffffffffffffffffffffffffffffffffffff1673ffffffffffffffffffffffffffffffffffffffff1673ffffffffffffffffffffffffffffffffffffffff168152602001908152602001600020819055505b60048054806124ce576124cd6140c5565b5b6001900381819060005260206000200160006101000a81549073ffffffffffffffffffffffffffffffffffffffff02191690559055600360008473ffffffffffffffffffffffffffffffffffffffff1673ffffffffffffffffffffffffffffffffffffffff168152602001908152602001600020600090558273ffffffffffffffffffffffffffffffffffffffff167faf66545c919a3be306ee446d8f42a9558b5b022620df880517bc9593ec0f2d5260405160405180910390a2505050565b6000612598612a4c565b905060028160000154036125d8576040517f3ee5aeb500000000000000000000000000000000000000000000000000000000815260040160405180910390fd5b6002816000018190555050565b60006125ef612a4c565b90506001816000018190555050565b60007ff0c57e16840df040f15088dc2f81fe391c3923bec73e23a9662efc9c229c6a00905090565b61262e612a74565b565b612638612a74565b612640612ab4565b565b7f000000000000000000000000000000000000000000000000000000000000000073ffffffffffffffffffffffffffffffffffffffff163073ffffffffffffffffffffffffffffffffffffffff1614806126ef57507f000000000000000000000000000000000000000000000000000000000000000073ffffffffffffffffffffffffffffffffffffffff166126d6612ad5565b73ffffffffffffffffffffffffffffffffffffffff1614155b15612726576040517fe07c8dba00000000000000000000000000000000000000000000000000000000815260040160405180910390fd5b565b6000806003811061273c5761273b6137c1565b5b0160009054906101000a900473ffffffffffffffffffffffffffffffffffffffff1673ffffffffffffffffffffffffffffffffffffffff163373ffffffffffffffffffffffffffffffffffffffff1614806127f8575060006001600381106127a7576127a66137c1565b5b0160009054906101000a900473ffffffffffffffffffffffffffffffffffffffff1673ffffffffffffffffffffffffffffffffffffffff163373ffffffffffffffffffffffffffffffffffffffff16145b8061286457506000600260038110612813576128126137c1565b5b0160009054906101000a900473ffffffffffffffffffffffffffffffffffffffff1673ffffffffffffffffffffffffffffffffffffffff163373ffffffffffffffffffffffffffffffffffffffff16145b6128a3576040517f08c379a000000000000000000000000000000000000000000000000000000000815260040161289a90614216565b60405180910390fd5b50565b8173ffffffffffffffffffffffffffffffffffffffff166352d1902d6040518163ffffffff1660e01b8152600401602060405180830381865afa92505050801561290e57506040513d601f19601f8201168201806040525081019061290b9190614357565b60015b61294f57816040517f4c9c8ce30000000000000000000000000000000000000000000000000000000081526004016129469190614393565b60405180910390fd5b7f360894a13ba1a3210667c828492db98dca3e2076cc3735a920a3ca505d382bbc60001b81146129b657806040517faa1d49a40000000000000000000000000000000000000000000000000000000081526004016129ad91906135c3565b60405180910390fd5b6129c08383612b2c565b505050565b7f000000000000000000000000000000000000000000000000000000000000000073ffffffffffffffffffffffffffffffffffffffff163073ffffffffffffffffffffffffffffffffffffffff1614612a4a576040517fe07c8dba00000000000000000000000000000000000000000000000000000000815260040160405180910390fd5b565b60007f9b779b17422d0df92223018b32b4d1fa46e071723d6817e2486d003becc55f00905090565b612a7c612b9f565b612ab2576040517fd7e6bcf800000000000000000000000000000000000000000000000000000000815260040160405180910390fd5b565b612abc612a74565b6000612ac6612a4c565b90506001816000018190555050565b6000612b037f360894a13ba1a3210667c828492db98dca3e2076cc3735a920a3ca505d382bbc60001b612bbf565b60000160009054906101000a900473ffffffffffffffffffffffffffffffffffffffff16905090565b612b3582612bc9565b8173ffffffffffffffffffffffffffffffffffffffff167fbc7cd75a20ee27fd9adebab32041f755214dbc6bffa90cc0225b39da2e5c2d3b60405160405180910390a2600081511115612b9257612b8c8282612c96565b50612b9b565b612b9a612d1a565b5b5050565b6000612ba96125fe565b60000160089054906101000a900460ff16905090565b6000819050919050565b60008173ffffffffffffffffffffffffffffffffffffffff163b03612c2557806040517f4c9c8ce3000000000000000000000000000000000000000000000000000000008152600401612c1c9190614393565b60405180910390fd5b80612c527f360894a13ba1a3210667c828492db98dca3e2076cc3735a920a3ca505d382bbc60001b612bbf565b60000160006101000a81548173ffffffffffffffffffffffffffffffffffffffff021916908373ffffffffffffffffffffffffffffffffffffffff16021790555050565b60606000808473ffffffffffffffffffffffffffffffffffffffff1684604051612cc091906143f5565b600060405180830381855af49150503d8060008114612cfb576040519150601f19603f3d011682016040523d82523d6000602084013e612d00565b606091505b5091509150612d10858383612d57565b9250505092915050565b6000341115612d55576040517fb398979f00000000000000000000000000000000000000000000000000000000815260040160405180910390fd5b565b606082612d6c57612d6782612de6565b612dde565b60008251148015612d94575060008473ffffffffffffffffffffffffffffffffffffffff163b145b15612dd657836040517f9996b315000000000000000000000000000000000000000000000000000000008152600401612dcd9190614393565b60405180910390fd5b819050612ddf565b5b9392505050565b600081511115612df95780518082602001fd5b6040517fd6bda27500000000000000000000000000000000000000000000000000000000815260040160405180910390fd5b60405180606001604052806000801916815260200160608152602001600081525090565b508054612e5b90613940565b6000825580601f10612e6d5750612e8c565b601f016020900490600052602060002090810190612e8b9190612e8f565b5b50565b5b80821115612ea8576000816000905550600101612e90565b5090565b600081519050919050565b600082825260208201905092915050565b6000819050602082019050919050565b600073ffffffffffffffffffffffffffffffffffffffff82169050919050565b6000612f0382612ed8565b9050919050565b612f1381612ef8565b82525050565b6000612f258383612f0a565b60208301905092915050565b6000602082019050919050565b6000612f4982612eac565b612f538185612eb7565b9350612f5e83612ec8565b8060005b83811015612f8f578151612f768882612f19565b9750612f8183612f31565b925050600181019050612f62565b5085935050505092915050565b60006020820190508181036000830152612fb68184612f3e565b905092915050565b6000604051905090565b600080fd5b600080fd5b600080fd5b600080fd5b600080fd5b60008083601f840112612ff757612ff6612fd2565b5b8235905067ffffffffffffffff81111561301457613013612fd7565b5b6020830191508360018202830111156130305761302f612fdc565b5b9250929050565b6000819050919050565b61304a81613037565b811461305557600080fd5b50565b60008135905061306781613041565b92915050565b60008060008060006060868803121561308957613088612fc8565b5b600086013567ffffffffffffffff8111156130a7576130a6612fcd565b5b6130b388828901612fe1565b9550955050602086013567ffffffffffffffff8111156130d6576130d5612fcd565b5b6130e288828901612fe1565b935093505060406130f588828901613058565b9150509295509295909350565b6000806020838503121561311957613118612fc8565b5b600083013567ffffffffffffffff81111561313757613136612fcd565b5b61314385828601612fe1565b92509250509250929050565b600081519050919050565b600082825260208201905092915050565b6000819050602082019050919050565b61318481613037565b82525050565b600081519050919050565b600082825260208201905092915050565b60005b838110156131c45780820151818401526020810190506131a9565b60008484015250505050565b6000601f19601f8301169050919050565b60006131ec8261318a565b6131f68185613195565b93506132068185602086016131a6565b61320f816131d0565b840191505092915050565b6000819050919050565b61322d8161321a565b82525050565b600060608301600083015161324b600086018261317b565b506020830151848203602086015261326382826131e1565b91505060408301516132786040860182613224565b508091505092915050565b600061328f8383613233565b905092915050565b6000602082019050919050565b60006132af8261314f565b6132b9818561315a565b9350836020820285016132cb8561316b565b8060005b8581101561330757848403895281516132e88582613283565b94506132f383613297565b925060208a019950506001810190506132cf565b50829750879550505050505092915050565b6000602082019050818103600083015261333381846132a4565b905092915050565b6000806000806040858703121561335557613354612fc8565b5b600085013567ffffffffffffffff81111561337357613372612fcd565b5b61337f87828801612fe1565b9450945050602085013567ffffffffffffffff8111156133a2576133a1612fcd565b5b6133ae87828801612fe1565b925092505092959194509250565b6133c581612ef8565b81146133d057600080fd5b50565b6000813590506133e2816133bc565b92915050565b600080604083850312156133ff576133fe612fc8565b5b600061340d858286016133d3565b925050602061341e858286016133d3565b9150509250929050565b600080fd5b7f4e487b7100000000000000000000000000000000000000000000000000000000600052604160045260246000fd5b613465826131d0565b810181811067ffffffffffffffff821117156134845761348361342d565b5b80604052505050565b6000613497612fbe565b90506134a3828261345c565b919050565b600067ffffffffffffffff8211156134c3576134c261342d565b5b6134cc826131d0565b9050602081019050919050565b82818337600083830152505050565b60006134fb6134f6846134a8565b61348d565b90508281526020810184848401111561351757613516613428565b5b6135228482856134d9565b509392505050565b600082601f83011261353f5761353e612fd2565b5b813561354f8482602086016134e8565b91505092915050565b6000806040838503121561356f5761356e612fc8565b5b600061357d858286016133d3565b925050602083013567ffffffffffffffff81111561359e5761359d612fcd565b5b6135aa8582860161352a565b9150509250929050565b6135bd81613037565b82525050565b60006020820190506135d860008301846135b4565b92915050565b600082825260208201905092915050565b60006135fa8261318a565b61360481856135de565b93506136148185602086016131a6565b61361d816131d0565b840191505092915050565b600060408201905061363d60008301856135b4565b818103602083015261364f81846135ef565b90509392505050565b60006020828403121561366e5761366d612fc8565b5b600061367c848285016133d3565b91505092915050565b60008115159050919050565b61369a81613685565b82525050565b60006020820190506136b56000830184613691565b92915050565b600081519050919050565b600082825260208201905092915050565b6000819050602082019050919050565b60006136f383836131e1565b905092915050565b6000602082019050919050565b6000613713826136bb565b61371d81856136c6565b93508360208202850161372f856136d7565b8060005b8581101561376b578484038952815161374c85826136e7565b9450613757836136fb565b925060208a01995050600181019050613733565b50829750879550505050505092915050565b600060208201905081810360008301526137978184613708565b905092915050565b600060208201905081810360008301526137b981846135ef565b905092915050565b7f4e487b7100000000000000000000000000000000000000000000000000000000600052603260045260246000fd5b7f4e6f7420617574686f72697a656420746f2073746f7265000000000000000000600082015250565b60006138266017836135de565b9150613831826137f0565b602082019050919050565b6000602082019050818103600083015261385581613819565b9050919050565b600081905092915050565b6000613873838561385c565b93506138808385846134d9565b82840190509392505050565b6000613899828486613867565b91508190509392505050565b7f446f63756d656e7420616c72656164792073746f726564000000000000000000600082015250565b60006138db6017836135de565b91506138e6826138a5565b602082019050919050565b6000602082019050818103600083015261390a816138ce565b9050919050565b7f4e487b7100000000000000000000000000000000000000000000000000000000600052602260045260246000fd5b6000600282049050600182168061395857607f821691505b60208210810361396b5761396a613911565b5b50919050565b60008190508160005260206000209050919050565b60006020601f8301049050919050565b600082821b905092915050565b6000600883026139d37fffffffffffffffffffffffffffffffffffffffffffffffffffffffffffffffff82613996565b6139dd8683613996565b95508019841693508086168417925050509392505050565b6000819050919050565b6000613a1a613a15613a108461321a565b6139f5565b61321a565b9050919050565b6000819050919050565b613a34836139ff565b613a48613a4082613a21565b8484546139a3565b825550505050565b600090565b613a5d613a50565b613a68818484613a2b565b505050565b5b81811015613a8c57613a81600082613a55565b600181019050613a6e565b5050565b601f821115613ad157613aa281613971565b613aab84613986565b81016020851015613aba578190505b613ace613ac685613986565b830182613a6d565b50505b505050565b600082821c905092915050565b6000613af460001984600802613ad6565b1980831691505092915050565b6000613b0d8383613ae3565b9150826002028217905092915050565b613b268261318a565b67ffffffffffffffff811115613b3f57613b3e61342d565b5b613b498254613940565b613b54828285613a90565b600060209050601f831160018114613b875760008415613b75578287015190505b613b7f8582613b01565b865550613be7565b601f198416613b9586613971565b60005b82811015613bbd57848901518255600182019150602085019450602081019050613b98565b86831015613bda5784890151613bd6601f891682613ae3565b8355505b6001600288020188555050505b505050505050565b600082905092915050565b613c048383613bef565b67ffffffffffffffff811115613c1d57613c1c61342d565b5b613c278254613940565b613c32828285613a90565b6000601f831160018114613c615760008415613c4f578287013590505b613c598582613b01565b865550613cc1565b601f198416613c6f86613971565b60005b82811015613c9757848901358255600182019150602085019450602081019050613c72565b86831015613cb45784890135613cb0601f891682613ae3565b8355505b6001600288020188555050505b50505050505050565b6000613cd683856135de565b9350613ce38385846134d9565b613cec836131d0565b840190509392505050565b6000604082019050613d0c60008301866135b4565b8181036020830152613d1f818486613cca565b9050949350505050565b60008154613d3681613940565b613d40818661385c565b94506001821660008114613d5b5760018114613d7057613da3565b60ff1983168652811515820286019350613da3565b613d7985613971565b60005b83811015613d9b57815481890152600182019150602081019050613d7c565b838801955050505b50505092915050565b6000613db88284613d29565b915081905092915050565b7f4e6f7420617574686f72697a656420746f207265766f6b650000000000000000600082015250565b6000613df96018836135de565b9150613e0482613dc3565b602082019050919050565b60006020820190508181036000830152613e2881613dec565b9050919050565b7f446f63756d656e74206e6f7420666f756e640000000000000000000000000000600082015250565b6000613e656012836135de565b9150613e7082613e2f565b602082019050919050565b60006020820190508181036000830152613e9481613e58565b9050919050565b60008154613ea881613940565b613eb281866135de565b94506001821660008114613ecd5760018114613ee357613f16565b60ff198316865281151560200286019350613f16565b613eec85613971565b60005b83811015613f0e57815481890152600182019150602081019050613eef565b808801955050505b50505092915050565b6000604082019050613f3460008301856135b4565b8181036020830152613f468184613e9b565b90509392505050565b7f4e487b7100000000000000000000000000000000000000000000000000000000600052601160045260246000fd5b6000613f898261321a565b9150613f948361321a565b9250828203905081811115613fac57613fab613f4f565b5b92915050565b600081549050613fc181613940565b9050919050565b60008190508160005260206000209050919050565b818103613feb5750506140c3565b613ff482613fb2565b67ffffffffffffffff81111561400d5761400c61342d565b5b6140178254613940565b614022828285613a90565b6000601f831160018114614051576000841561403f578287015490505b6140498582613b01565b8655506140bc565b601f19841661405f87613fc8565b965061406a86613971565b60005b828110156140925784890154825560018201915060018501945060208101905061406d565b868310156140af57848901546140ab601f891682613ae3565b8355505b6001600288020188555050505b5050505050505b565b7f4e487b7100000000000000000000000000000000000000000000000000000000600052603160045260246000fd5b7f4f6e6c7920746865206465706c6f7965722063616e20696e697469616c697a65600082015250565b600061412a6020836135de565b9150614135826140f4565b602082019050919050565b600060208201905081810360008301526141598161411d565b9050919050565b6000819050919050565b600067ffffffffffffffff82169050919050565b600061419961419461418f84614160565b6139f5565b61416a565b9050919050565b6141a98161417e565b82525050565b60006020820190506141c460008301846141a0565b92915050565b7f4e6f7420616e206f776e65720000000000000000000000000000000000000000600082015250565b6000614200600c836135de565b915061420b826141ca565b602082019050919050565b6000602082019050818103600083015261422f816141f3565b9050919050565b7f5573657220616c726561647920617574686f72697a6564000000000000000000600082015250565b600061426c6017836135de565b915061427782614236565b602082019050919050565b6000602082019050818103600083015261429b8161425f565b9050919050565b60006142ad8261321a565b91506142b88361321a565b92508282019050808211156142d0576142cf613f4f565b5b92915050565b7f55736572206973206e6f7420617574686f72697a656400000000000000000000600082015250565b600061430c6016836135de565b9150614317826142d6565b602082019050919050565b6000602082019050818103600083015261433b816142ff565b9050919050565b60008151905061435181613041565b92915050565b60006020828403121561436d5761436c612fc8565b5b600061437b84828501614342565b91505092915050565b61438d81612ef8565b82525050565b60006020820190506143a86000830184614384565b92915050565b600081519050919050565b600081905092915050565b60006143cf826143ae565b6143d981856143b9565b93506143e98185602086016131a6565b80840191505092915050565b600061440182846143c4565b91508190509291505056fea2646970667358221220ac4a80047e125ae76c267864e48f0add2fc78b83eb3a968eb1bed2036909041064736f6c634300081a0033",
  "linkReferences": {},
  "deployedLinkReferences": {}
}